{
  "contractName": "Certifyi",
  "abi": [
    {
      "constant": true,
      "inputs": [
        {
          "name": "",
          "type": "bytes32"
        }
      ],
      "name": "records",
      "outputs": [
        {
          "name": "",
          "type": "address"
        }
      ],
      "payable": false,
      "stateMutability": "view",
      "type": "function"
    },
    {
      "constant": true,
      "inputs": [],
      "name": "owner",
      "outputs": [
        {
          "name": "",
          "type": "address"
        }
      ],
      "payable": false,
      "stateMutability": "view",
      "type": "function"
    },
    {
      "constant": true,
      "inputs": [
        {
          "name": "",
          "type": "bytes32"
        }
      ],
      "name": "timestamps",
      "outputs": [
        {
          "name": "",
          "type": "uint256"
        }
      ],
      "payable": false,
      "stateMutability": "view",
      "type": "function"
    },
    {
      "constant": false,
      "inputs": [
        {
          "name": "newOwner",
          "type": "address"
        }
      ],
      "name": "transferOwnership",
      "outputs": [],
      "payable": false,
      "stateMutability": "nonpayable",
      "type": "function"
    },
    {
      "anonymous": false,
      "inputs": [
        {
          "indexed": true,
          "name": "record",
          "type": "bytes32"
        },
        {
          "indexed": true,
          "name": "certifier",
          "type": "address"
        },
        {
          "indexed": false,
          "name": "timestamp",
          "type": "uint256"
        }
      ],
      "name": "LogCertified",
      "type": "event"
    },
    {
      "constant": false,
      "inputs": [
        {
          "name": "_record",
          "type": "bytes32"
        }
      ],
      "name": "certify",
      "outputs": [],
      "payable": false,
      "stateMutability": "nonpayable",
      "type": "function"
    },
    {
      "constant": true,
      "inputs": [
        {
          "name": "_record",
          "type": "bytes32"
        }
      ],
      "name": "exists",
      "outputs": [
        {
          "name": "",
          "type": "bool"
        }
      ],
      "payable": false,
      "stateMutability": "view",
      "type": "function"
    },
    {
      "constant": true,
      "inputs": [
        {
          "name": "_record",
          "type": "bytes32"
        }
      ],
      "name": "getCertifier",
      "outputs": [
        {
          "name": "",
          "type": "address"
        }
      ],
      "payable": false,
      "stateMutability": "view",
      "type": "function"
    },
    {
      "constant": true,
      "inputs": [
        {
          "name": "_record",
          "type": "bytes32"
        }
      ],
      "name": "getTimestamp",
      "outputs": [
        {
          "name": "",
          "type": "uint256"
        }
      ],
      "payable": false,
      "stateMutability": "view",
      "type": "function"
    },
    {
      "constant": true,
      "inputs": [
        {
          "name": "_record",
          "type": "bytes32"
        }
      ],
      "name": "didCertify",
      "outputs": [
        {
          "name": "",
          "type": "bool"
        }
      ],
      "payable": false,
      "stateMutability": "view",
      "type": "function"
    },
    {
      "constant": true,
      "inputs": [
        {
          "name": "_record",
          "type": "bytes32"
        },
        {
          "name": "_notarizer",
          "type": "address"
        }
      ],
      "name": "isCertifier",
      "outputs": [
        {
          "name": "",
          "type": "bool"
        }
      ],
      "payable": false,
      "stateMutability": "view",
      "type": "function"
    },
    {
      "constant": true,
      "inputs": [
        {
          "name": "_hash",
          "type": "bytes32"
        },
        {
          "name": "_sig",
          "type": "bytes"
        }
      ],
      "name": "ecrecovery",
      "outputs": [
        {
          "name": "",
          "type": "address"
        }
      ],
      "payable": false,
      "stateMutability": "pure",
      "type": "function"
    },
    {
      "constant": true,
      "inputs": [
        {
          "name": "_hash",
          "type": "bytes32"
        },
        {
          "name": "_sig",
          "type": "bytes"
        },
        {
          "name": "_signer",
          "type": "address"
        }
      ],
      "name": "ecverify",
      "outputs": [
        {
          "name": "",
          "type": "bool"
        }
      ],
      "payable": false,
      "stateMutability": "pure",
      "type": "function"
    }
  ],
  "bytecode": "0x6080604052336000806101000a81548173ffffffffffffffffffffffffffffffffffffffff021916908373ffffffffffffffffffffffffffffffffffffffff160217905550610cfb806100536000396000f3fe6080604052600436106100ba576000357c0100000000000000000000000000000000000000000000000000000000900463ffffffff16806301e64725146100bf57806319af86731461013a57806324c74c78146101ad57806338a699a4146101e857806339cdde321461023b5780635c94e5971461034557806377d32e94146103985780638da5cb5b146104aa578063acb376ae14610501578063b58729581461057c578063d45c4435146105cb578063f2fde38b1461061a575b600080fd5b3480156100cb57600080fd5b506100f8600480360360208110156100e257600080fd5b810190808035906020019092919050505061066b565b604051808273ffffffffffffffffffffffffffffffffffffffff1673ffffffffffffffffffffffffffffffffffffffff16815260200191505060405180910390f35b34801561014657600080fd5b506101936004803603604081101561015d57600080fd5b8101908080359060200190929190803573ffffffffffffffffffffffffffffffffffffffff16906020019092919050505061069e565b604051808215151515815260200191505060405180910390f35b3480156101b957600080fd5b506101e6600480360360208110156101d057600080fd5b8101908080359060200190929190505050610730565b005b3480156101f457600080fd5b506102216004803603602081101561020b57600080fd5b81019080803590602001909291905050506108c7565b604051808215151515815260200191505060405180910390f35b34801561024757600080fd5b5061032b6004803603606081101561025e57600080fd5b81019080803590602001909291908035906020019064010000000081111561028557600080fd5b82018360208201111561029757600080fd5b803590602001918460018302840111640100000000831117156102b957600080fd5b91908080601f016020809104026020016040519081016040528093929190818152602001838380828437600081840152601f19601f820116905080830192505050505050509192919290803573ffffffffffffffffffffffffffffffffffffffff16906020019092919050505061095f565b604051808215151515815260200191505060405180910390f35b34801561035157600080fd5b5061037e6004803603602081101561036857600080fd5b81019080803590602001909291905050506109a2565b604051808215151515815260200191505060405180910390f35b3480156103a457600080fd5b50610468600480360360408110156103bb57600080fd5b8101908080359060200190929190803590602001906401000000008111156103e257600080fd5b8201836020820111156103f457600080fd5b8035906020019184600183028401116401000000008311171561041657600080fd5b91908080601f016020809104026020016040519081016040528093929190818152602001838380828437600081840152601f19601f820116905080830192505050505050509192919290505050610a33565b604051808273ffffffffffffffffffffffffffffffffffffffff1673ffffffffffffffffffffffffffffffffffffffff16815260200191505060405180910390f35b3480156104b657600080fd5b506104bf610b17565b604051808273ffffffffffffffffffffffffffffffffffffffff1673ffffffffffffffffffffffffffffffffffffffff16815260200191505060405180910390f35b34801561050d57600080fd5b5061053a6004803603602081101561052457600080fd5b8101908080359060200190929190505050610b3c565b604051808273ffffffffffffffffffffffffffffffffffffffff1673ffffffffffffffffffffffffffffffffffffffff16815260200191505060405180910390f35b34801561058857600080fd5b506105b56004803603602081101561059f57600080fd5b8101908080359060200190929190505050610b9f565b6040518082815260200191505060405180910390f35b3480156105d757600080fd5b50610604600480360360208110156105ee57600080fd5b8101908080359060200190929190505050610bb7565b6040518082815260200191505060405180910390f35b34801561062657600080fd5b506106696004803603602081101561063d57600080fd5b81019080803573ffffffffffffffffffffffffffffffffffffffff169060200190929190505050610bfa565b005b60016020528060005260406000206000915054906101000a900473ffffffffffffffffffffffffffffffffffffffff1681565b60008173ffffffffffffffffffffffffffffffffffffffff1660016000856040516020018082815260200191505060405160208183030381529060405280519060200120815260200190815260200160002060009054906101000a900473ffffffffffffffffffffffffffffffffffffffff1673ffffffffffffffffffffffffffffffffffffffff1614905092915050565b600081604051602001808281526020019150506040516020818303038152906040528051906020012090506040518060000190506040518091039020811415151561077a57600080fd5b600073ffffffffffffffffffffffffffffffffffffffff166001600083815260200190815260200160002060009054906101000a900473ffffffffffffffffffffffffffffffffffffffff1673ffffffffffffffffffffffffffffffffffffffff161415156107e857600080fd5b6000600260008381526020019081526020016000205414151561080a57600080fd5b336001600083815260200190815260200160002060006101000a81548173ffffffffffffffffffffffffffffffffffffffff021916908373ffffffffffffffffffffffffffffffffffffffff1602179055504260026000838152602001908152602001600020819055503373ffffffffffffffffffffffffffffffffffffffff16817f52c092a7ab344d8fdf546140020e34475bd6d075f962dcab4f74ba78dfbc8315426040518082815260200191505060405180910390a35050565b6000808260405160200180828152602001915050604051602081830303815290604052805190602001209050600073ffffffffffffffffffffffffffffffffffffffff166001600083815260200190815260200160002060009054906101000a900473ffffffffffffffffffffffffffffffffffffffff1673ffffffffffffffffffffffffffffffffffffffff161415915050919050565b600061096b8484610a33565b73ffffffffffffffffffffffffffffffffffffffff168273ffffffffffffffffffffffffffffffffffffffff161490509392505050565b60003373ffffffffffffffffffffffffffffffffffffffff1660016000846040516020018082815260200191505060405160208183030381529060405280519060200120815260200190815260200160002060009054906101000a900473ffffffffffffffffffffffffffffffffffffffff1673ffffffffffffffffffffffffffffffffffffffff16149050919050565b60008060008060418551141515610a505760009350505050610b11565b602085015192506040850151915060ff6041860151169050601b8160ff161015610a7b57601b810190505b601b8160ff1614158015610a935750601c8160ff1614155b15610aa45760009350505050610b11565b60018682858560405160008152602001604052604051808581526020018460ff1660ff1681526020018381526020018281526020019450505050506020604051602081039080840390855afa158015610b01573d6000803e3d6000fd5b5050506020604051035193505050505b92915050565b6000809054906101000a900473ffffffffffffffffffffffffffffffffffffffff1681565b600060016000836040516020018082815260200191505060405160208183030381529060405280519060200120815260200190815260200160002060009054906101000a900473ffffffffffffffffffffffffffffffffffffffff169050919050565b60026020528060005260406000206000915090505481565b6000600260008360405160200180828152602001915050604051602081830303815290604052805190602001208152602001908152602001600020549050919050565b6000809054906101000a900473ffffffffffffffffffffffffffffffffffffffff1673ffffffffffffffffffffffffffffffffffffffff163373ffffffffffffffffffffffffffffffffffffffff16141515610c5557600080fd5b600073ffffffffffffffffffffffffffffffffffffffff168173ffffffffffffffffffffffffffffffffffffffff16141515610ccc57806000806101000a81548173ffffffffffffffffffffffffffffffffffffffff021916908373ffffffffffffffffffffffffffffffffffffffff1602179055505b5056fea165627a7a72305820f43eba0af6a301b0788c97ab9d5ddd3532e406392050c24b9ee934229bce89040029",
  "source": "pragma solidity ^0.5.0;\n\nimport './Ownable.sol';\n\ncontract Certifyi is Ownable {\n  mapping (bytes32 => address) public records;\n  mapping (bytes32 => uint256) public timestamps;\n  \n  \n\n  event LogCertified(bytes32 indexed record, address indexed certifier, uint256 timestamp);\n\n  function certify(bytes32 _record) public {\n    bytes32 hash = keccak256(abi.encodePacked(_record));\n    require(hash != keccak256(\"\"));\n    require(records[hash] == address(0));\n    require(timestamps[hash] == 0);\n    records[hash] = msg.sender;\n    timestamps[hash] = block.timestamp;\n\n    emit LogCertified(hash, msg.sender, block.timestamp);\n  }\n\n  function exists(bytes32 _record) view public returns (bool) {\n    bytes32 hash = keccak256(abi.encodePacked(_record));\n    return records[hash] != address(0);\n  }\n\n  function getCertifier(bytes32 _record) view public returns (address) {\n    return records[keccak256(abi.encodePacked(_record))];\n  }\n\n  function getTimestamp(bytes32 _record) view public returns (uint256) {\n    return timestamps[keccak256(abi.encodePacked(_record))];\n  }\n\n  function didCertify(bytes32 _record) view public returns (bool) {\n    return records[keccak256(abi.encodePacked(_record))] == msg.sender;\n  }\n\n  function isCertifier(bytes32 _record, address _notarizer) view public returns (bool) {\n    return records[keccak256(abi.encodePacked(_record))] == _notarizer;\n  }\n\n  function ecrecovery(bytes32 _hash, bytes memory _sig)  pure public returns (address) {\n    bytes32 r;\n    bytes32 s;\n    uint8 v;\n\n    if (_sig.length != 65) {\n      return address(0);\n    }\n\n    assembly {\n      r := mload(add(_sig, 32))\n      s := mload(add(_sig, 64))\n      v := and(mload(add(_sig, 65)), 255)\n    }\n\n    if (v < 27) {\n      v += 27;\n    }\n\n    if (v != 27 && v != 28) {\n      return address(0);\n    }\n\n    return ecrecover(_hash, v, r, s);\n  }\n\n  function ecverify(bytes32 _hash, bytes memory _sig, address _signer) pure public returns (bool) {\n    return _signer == ecrecovery(_hash, _sig);\n  }\n}",
  "sourcePath": "/home/manzik/Consensys Bootcamp/Final Project/Certify/contracts/Certify.sol",
  "compiler": {
    "name": "solc",
    "version": "0.5.0+commit.1d4f565a.Emscripten.clang"
  },
  "schemaVersion": "3.0.9",
  "updatedAt": "2019-07-23T04:34:52.053Z",
  "devdoc": {
    "methods": {}
  },
  "userdoc": {
    "methods": {}
  }
}