{
  "contractName": "Certifyi",
  "abi": [
    {
      "constant": true,
      "inputs": [
        {
          "name": "",
          "type": "bytes32"
        }
      ],
      "name": "records",
      "outputs": [
        {
          "name": "",
          "type": "address"
        }
      ],
      "payable": false,
      "stateMutability": "view",
      "type": "function"
    },
    {
      "constant": true,
      "inputs": [],
      "name": "owner",
      "outputs": [
        {
          "name": "",
          "type": "address"
        }
      ],
      "payable": false,
      "stateMutability": "view",
      "type": "function"
    },
    {
      "constant": true,
      "inputs": [
        {
          "name": "",
          "type": "bytes32"
        }
      ],
      "name": "timestamps",
      "outputs": [
        {
          "name": "",
          "type": "uint256"
        }
      ],
      "payable": false,
      "stateMutability": "view",
      "type": "function"
    },
    {
      "constant": false,
      "inputs": [
        {
          "name": "newOwner",
          "type": "address"
        }
      ],
      "name": "transferOwnership",
      "outputs": [],
      "payable": false,
      "stateMutability": "nonpayable",
      "type": "function"
    },
    {
      "anonymous": false,
      "inputs": [
        {
          "indexed": true,
          "name": "record",
          "type": "bytes32"
        },
        {
          "indexed": true,
          "name": "certifier",
          "type": "address"
        },
        {
          "indexed": false,
          "name": "timestamp",
          "type": "uint256"
        }
      ],
      "name": "LogCertified",
      "type": "event"
    },
    {
      "constant": false,
      "inputs": [
        {
          "name": "_record",
          "type": "bytes32"
        }
      ],
      "name": "certify",
      "outputs": [],
      "payable": false,
      "stateMutability": "nonpayable",
      "type": "function"
    },
    {
      "constant": true,
      "inputs": [
        {
          "name": "_record",
          "type": "bytes32"
        }
      ],
      "name": "exists",
      "outputs": [
        {
          "name": "",
          "type": "bool"
        }
      ],
      "payable": false,
      "stateMutability": "view",
      "type": "function"
    },
    {
      "constant": true,
      "inputs": [
        {
          "name": "_record",
          "type": "bytes32"
        }
      ],
      "name": "getCertifier",
      "outputs": [
        {
          "name": "",
          "type": "address"
        }
      ],
      "payable": false,
      "stateMutability": "view",
      "type": "function"
    },
    {
      "constant": true,
      "inputs": [
        {
          "name": "_record",
          "type": "bytes32"
        }
      ],
      "name": "getTimestamp",
      "outputs": [
        {
          "name": "",
          "type": "uint256"
        }
      ],
      "payable": false,
      "stateMutability": "view",
      "type": "function"
    },
    {
      "constant": true,
      "inputs": [
        {
          "name": "_record",
          "type": "bytes32"
        }
      ],
      "name": "didCertify",
      "outputs": [
        {
          "name": "",
          "type": "bool"
        }
      ],
      "payable": false,
      "stateMutability": "view",
      "type": "function"
    },
    {
      "constant": true,
      "inputs": [
        {
          "name": "_record",
          "type": "bytes32"
        },
        {
          "name": "_certifier",
          "type": "address"
        }
      ],
      "name": "isCertifier",
      "outputs": [
        {
          "name": "",
          "type": "bool"
        }
      ],
      "payable": false,
      "stateMutability": "view",
      "type": "function"
    },
    {
      "constant": true,
      "inputs": [
        {
          "name": "_hash",
          "type": "bytes32"
        },
        {
          "name": "_sig",
          "type": "bytes"
        }
      ],
      "name": "ecrecovery",
      "outputs": [
        {
          "name": "",
          "type": "address"
        }
      ],
      "payable": false,
      "stateMutability": "pure",
      "type": "function"
    },
    {
      "constant": true,
      "inputs": [
        {
          "name": "_hash",
          "type": "bytes32"
        },
        {
          "name": "_sig",
          "type": "bytes"
        },
        {
          "name": "_signer",
          "type": "address"
        }
      ],
      "name": "ecverify",
      "outputs": [
        {
          "name": "",
          "type": "bool"
        }
      ],
      "payable": false,
      "stateMutability": "pure",
      "type": "function"
    }
  ],
  "bytecode": "0x6080604052336000806101000a81548173ffffffffffffffffffffffffffffffffffffffff021916908373ffffffffffffffffffffffffffffffffffffffff160217905550610e5c806100536000396000f3fe6080604052600436106100ba576000357c0100000000000000000000000000000000000000000000000000000000900463ffffffff16806301e64725146100bf57806319af86731461013a57806324c74c78146101ad57806338a699a4146101e857806339cdde321461023b5780635c94e5971461034557806377d32e94146103985780638da5cb5b146104aa578063acb376ae14610501578063b58729581461057c578063d45c4435146105cb578063f2fde38b1461061a575b600080fd5b3480156100cb57600080fd5b506100f8600480360360208110156100e257600080fd5b810190808035906020019092919050505061066b565b604051808273ffffffffffffffffffffffffffffffffffffffff1673ffffffffffffffffffffffffffffffffffffffff16815260200191505060405180910390f35b34801561014657600080fd5b506101936004803603604081101561015d57600080fd5b8101908080359060200190929190803573ffffffffffffffffffffffffffffffffffffffff16906020019092919050505061069e565b604051808215151515815260200191505060405180910390f35b3480156101b957600080fd5b506101e6600480360360208110156101d057600080fd5b8101908080359060200190929190505050610730565b005b3480156101f457600080fd5b506102216004803603602081101561020b57600080fd5b8101908080359060200190929190505050610a28565b604051808215151515815260200191505060405180910390f35b34801561024757600080fd5b5061032b6004803603606081101561025e57600080fd5b81019080803590602001909291908035906020019064010000000081111561028557600080fd5b82018360208201111561029757600080fd5b803590602001918460018302840111640100000000831117156102b957600080fd5b91908080601f016020809104026020016040519081016040528093929190818152602001838380828437600081840152601f19601f820116905080830192505050505050509192919290803573ffffffffffffffffffffffffffffffffffffffff169060200190929190505050610ac0565b604051808215151515815260200191505060405180910390f35b34801561035157600080fd5b5061037e6004803603602081101561036857600080fd5b8101908080359060200190929190505050610b03565b604051808215151515815260200191505060405180910390f35b3480156103a457600080fd5b50610468600480360360408110156103bb57600080fd5b8101908080359060200190929190803590602001906401000000008111156103e257600080fd5b8201836020820111156103f457600080fd5b8035906020019184600183028401116401000000008311171561041657600080fd5b91908080601f016020809104026020016040519081016040528093929190818152602001838380828437600081840152601f19601f820116905080830192505050505050509192919290505050610b94565b604051808273ffffffffffffffffffffffffffffffffffffffff1673ffffffffffffffffffffffffffffffffffffffff16815260200191505060405180910390f35b3480156104b657600080fd5b506104bf610c78565b604051808273ffffffffffffffffffffffffffffffffffffffff1673ffffffffffffffffffffffffffffffffffffffff16815260200191505060405180910390f35b34801561050d57600080fd5b5061053a6004803603602081101561052457600080fd5b8101908080359060200190929190505050610c9d565b604051808273ffffffffffffffffffffffffffffffffffffffff1673ffffffffffffffffffffffffffffffffffffffff16815260200191505060405180910390f35b34801561058857600080fd5b506105b56004803603602081101561059f57600080fd5b8101908080359060200190929190505050610d00565b6040518082815260200191505060405180910390f35b3480156105d757600080fd5b50610604600480360360208110156105ee57600080fd5b8101908080359060200190929190505050610d18565b6040518082815260200191505060405180910390f35b34801561062657600080fd5b506106696004803603602081101561063d57600080fd5b81019080803573ffffffffffffffffffffffffffffffffffffffff169060200190929190505050610d5b565b005b60016020528060005260406000206000915054906101000a900473ffffffffffffffffffffffffffffffffffffffff1681565b60008173ffffffffffffffffffffffffffffffffffffffff1660016000856040516020018082815260200191505060405160208183030381529060405280519060200120815260200190815260200160002060009054906101000a900473ffffffffffffffffffffffffffffffffffffffff1673ffffffffffffffffffffffffffffffffffffffff1614905092915050565b60008160405160200180828152602001915050604051602081830303815290604052805190602001209050604051806000019050604051809103902081141515156107e3576040517f08c379a00000000000000000000000000000000000000000000000000000000081526004018080602001828103825260108152602001807f696e70757420697320696e76616c69640000000000000000000000000000000081525060200191505060405180910390fd5b600073ffffffffffffffffffffffffffffffffffffffff166001600083815260200190815260200160002060009054906101000a900473ffffffffffffffffffffffffffffffffffffffff1673ffffffffffffffffffffffffffffffffffffffff161415156108e0576040517f08c379a00000000000000000000000000000000000000000000000000000000081526004018080602001828103825260278152602001807f74686973207265636f7264206861766520616c7265616479206265656e20636581526020017f727469666965640000000000000000000000000000000000000000000000000081525060400191505060405180910390fd5b6000600260008381526020019081526020016000205414151561096b576040517f08c379a00000000000000000000000000000000000000000000000000000000081526004018080602001828103825260108152602001807f756e6578706563746564206572726f720000000000000000000000000000000081525060200191505060405180910390fd5b336001600083815260200190815260200160002060006101000a81548173ffffffffffffffffffffffffffffffffffffffff021916908373ffffffffffffffffffffffffffffffffffffffff1602179055504260026000838152602001908152602001600020819055503373ffffffffffffffffffffffffffffffffffffffff16817f52c092a7ab344d8fdf546140020e34475bd6d075f962dcab4f74ba78dfbc8315426040518082815260200191505060405180910390a35050565b6000808260405160200180828152602001915050604051602081830303815290604052805190602001209050600073ffffffffffffffffffffffffffffffffffffffff166001600083815260200190815260200160002060009054906101000a900473ffffffffffffffffffffffffffffffffffffffff1673ffffffffffffffffffffffffffffffffffffffff161415915050919050565b6000610acc8484610b94565b73ffffffffffffffffffffffffffffffffffffffff168273ffffffffffffffffffffffffffffffffffffffff161490509392505050565b60003373ffffffffffffffffffffffffffffffffffffffff1660016000846040516020018082815260200191505060405160208183030381529060405280519060200120815260200190815260200160002060009054906101000a900473ffffffffffffffffffffffffffffffffffffffff1673ffffffffffffffffffffffffffffffffffffffff16149050919050565b60008060008060418551141515610bb15760009350505050610c72565b602085015192506040850151915060ff6041860151169050601b8160ff161015610bdc57601b810190505b601b8160ff1614158015610bf45750601c8160ff1614155b15610c055760009350505050610c72565b60018682858560405160008152602001604052604051808581526020018460ff1660ff1681526020018381526020018281526020019450505050506020604051602081039080840390855afa158015610c62573d6000803e3d6000fd5b5050506020604051035193505050505b92915050565b6000809054906101000a900473ffffffffffffffffffffffffffffffffffffffff1681565b600060016000836040516020018082815260200191505060405160208183030381529060405280519060200120815260200190815260200160002060009054906101000a900473ffffffffffffffffffffffffffffffffffffffff169050919050565b60026020528060005260406000206000915090505481565b6000600260008360405160200180828152602001915050604051602081830303815290604052805190602001208152602001908152602001600020549050919050565b6000809054906101000a900473ffffffffffffffffffffffffffffffffffffffff1673ffffffffffffffffffffffffffffffffffffffff163373ffffffffffffffffffffffffffffffffffffffff16141515610db657600080fd5b600073ffffffffffffffffffffffffffffffffffffffff168173ffffffffffffffffffffffffffffffffffffffff16141515610e2d57806000806101000a81548173ffffffffffffffffffffffffffffffffffffffff021916908373ffffffffffffffffffffffffffffffffffffffff1602179055505b5056fea165627a7a72305820dbcdcb36db01700e8fb34046f253d922cbe07c4cf5b5fd27433d2eb0f35f40180029",
  "source": "pragma solidity ^0.5.0;\n\nimport './Ownable.sol';\n\n/// @title A Certified Proof Of Existence of Any Document\n/// @author Manjik Shrestha\n/// @notice You can use this contract to store hash of your document on blockchain\n/// @dev takes bytes32 hash and maps it to the callers address and timestamp\n\ncontract Certifyi is Ownable {\n\n  mapping (bytes32 => address) public records;\n  mapping (bytes32 => uint256) public timestamps;\n  \n  \n\n  event LogCertified(bytes32 indexed record, address indexed certifier, uint256 timestamp);\n\n/// @notice Stores the given hash in Blockchain\n/// @dev stores address of function caller and blocks timestamp is stored via mapping and emits LogCertified event \n/// @param _record Hash of the given document\n  function certify(bytes32 _record) public {\n    bytes32 hash = keccak256(abi.encodePacked(_record));\n    require(hash != keccak256(\"\"),\"input is invalid\");\n    require(records[hash] == address(0),\"this record have already been certified\");\n    require(timestamps[hash] == 0,\"unexpected error\");\n    records[hash] = msg.sender;\n    timestamps[hash] = block.timestamp;\n\n    emit LogCertified(hash, msg.sender, block.timestamp);\n  }\n\n/// @notice checks if hash already exists on smart contract\n/// @dev hash the given record and checks if it maps to any address\n/// @param _record Hash of the given document\n/// @return bool value explaining whether hash already exists or not\n  function exists(bytes32 _record) view public returns (bool) {\n    bytes32 hash = keccak256(abi.encodePacked(_record));\n    return records[hash] != address(0);\n  }\n\n/// @notice get the certifier of the Document\n/// @dev checks the address mapped with given parameter\n/// @param _record Hash of the given document\n/// @return address of the certifier\n  function getCertifier(bytes32 _record) view public returns (address) {\n    return records[keccak256(abi.encodePacked(_record))];\n  }\n\n/// @notice get the timestamp when document is certified\n/// @dev checks the timestamp mapped with given parameter\n/// @param _record Hash of the given document\n/// @return timestamp of the document certification\n  function getTimestamp(bytes32 _record) view public returns (uint256) {\n    return timestamps[keccak256(abi.encodePacked(_record))];\n  }\n\n\n/// @notice check whether the function caller certify the given record\n/// @dev checks whether the hash mapped with address equals msg.sender or not\n/// @param _record Hash of the given document\n/// @return  bool value explaining whether the given record certified by function caller or not\n  function didCertify(bytes32 _record) view public returns (bool) {\n    return records[keccak256(abi.encodePacked(_record))] == msg.sender;\n  }\n\n/// @notice check whether the given address is certifier of given record\n/// @dev checks whether the hash mapped with given record equals given address\n/// @param _record Hash of the given document\n/// @param _certifier Address of document certifier\n/// @return  bool value explaining whether the given record certified by given address or not\n  function isCertifier(bytes32 _record, address _certifier) view public returns (bool) {\n    return records[keccak256(abi.encodePacked(_record))] == _certifier;\n  }\n\n/// @dev Recover signer address from a message by using his signature\n/// @param _hash bytes32 message, the hash is the signed message. What is recovered is the signer address.\n/// @param _sig bytes signature, the signature is generated using web3.eth.sign()\n/// @return address that generated _sig by siging the hash\n  function ecrecovery(bytes32 _hash, bytes memory _sig)  pure public returns (address) {\n    bytes32 r;\n    bytes32 s;\n    uint8 v;\n\n    if (_sig.length != 65) {\n      return address(0);\n    }\n\n    assembly {\n      r := mload(add(_sig, 32))\n      s := mload(add(_sig, 64))\n      v := and(mload(add(_sig, 65)), 255)\n    }\n\n    if (v < 27) {\n      v += 27;\n    }\n\n    if (v != 27 && v != 28) {\n      return address(0);\n    }\n\n    return ecrecover(_hash, v, r, s);\n  }\n\n/// @dev checks whether the signer claimed is actually the signer or not\n/// @param _hash bytes32 message, the hash is the signed message.\n/// @param _sig bytes signature, the signature is generated using web3.eth.sign()\n/// @param _signer address of claimed signer of given hash\n/// @return bool value explaining whether the claimed signer is true or not\n\n  function ecverify(bytes32 _hash, bytes memory _sig, address _signer) pure public returns (bool) {\n    return _signer == ecrecovery(_hash, _sig);\n  }\n}",
  "sourcePath": "/home/manzik/Consensys Bootcamp/Final Project/Certify/contracts/Certify.sol",
  "compiler": {
    "name": "solc",
    "version": "0.5.0+commit.1d4f565a.Emscripten.clang"
  },
  "schemaVersion": "3.0.9",
  "updatedAt": "2019-07-24T07:13:23.508Z",
  "devdoc": {
    "methods": {
      "certify(bytes32)": {
        "details": "stores address of function caller and blocks timestamp is stored via mapping and emits LogCertified event ",
        "params": {
          "_record": "Hash of the given document"
        }
      },
      "didCertify(bytes32)": {
        "details": "checks whether the hash mapped with address equals msg.sender or not",
        "params": {
          "_record": "Hash of the given document"
        },
        "return": "bool value explaining whether the given record certified by function caller or not"
      },
      "ecrecovery(bytes32,bytes)": {
        "details": "Recover signer address from a message by using his signature",
        "params": {
          "_hash": "bytes32 message, the hash is the signed message. What is recovered is the signer address.",
          "_sig": "bytes signature, the signature is generated using web3.eth.sign()"
        },
        "return": "address that generated _sig by siging the hash"
      },
      "ecverify(bytes32,bytes,address)": {
        "details": "checks whether the signer claimed is actually the signer or not",
        "params": {
          "_hash": "bytes32 message, the hash is the signed message.",
          "_sig": "bytes signature, the signature is generated using web3.eth.sign()",
          "_signer": "address of claimed signer of given hash"
        },
        "return": "bool value explaining whether the claimed signer is true or not"
      },
      "exists(bytes32)": {
        "details": "hash the given record and checks if it maps to any address",
        "params": {
          "_record": "Hash of the given document"
        },
        "return": "bool value explaining whether hash already exists or not"
      },
      "getCertifier(bytes32)": {
        "details": "checks the address mapped with given parameter",
        "params": {
          "_record": "Hash of the given document"
        },
        "return": "address of the certifier"
      },
      "getTimestamp(bytes32)": {
        "details": "checks the timestamp mapped with given parameter",
        "params": {
          "_record": "Hash of the given document"
        },
        "return": "timestamp of the document certification"
      },
      "isCertifier(bytes32,address)": {
        "details": "checks whether the hash mapped with given record equals given address",
        "params": {
          "_certifier": "Address of document certifier",
          "_record": "Hash of the given document"
        },
        "return": "bool value explaining whether the given record certified by given address or not"
      }
    },
    "author": "Manjik Shrestha",
    "details": "takes bytes32 hash and maps it to the callers address and timestamp",
    "title": "A Certified Proof Of Existence of Any Document"
  },
  "userdoc": {
    "methods": {
      "certify(bytes32)": {
        "notice": "Stores the given hash in Blockchain"
      },
      "didCertify(bytes32)": {
        "notice": "check whether the function caller certify the given record"
      },
      "exists(bytes32)": {
        "notice": "checks if hash already exists on smart contract"
      },
      "getCertifier(bytes32)": {
        "notice": "get the certifier of the Document"
      },
      "getTimestamp(bytes32)": {
        "notice": "get the timestamp when document is certified"
      },
      "isCertifier(bytes32,address)": {
        "notice": "check whether the given address is certifier of given record"
      }
    },
    "notice": "You can use this contract to store hash of your document on blockchain"
  }
}