{
  "contractName": "Certifyi",
  "abi": [
    {
      "constant": true,
      "inputs": [
        {
          "name": "",
          "type": "bytes32"
        }
      ],
      "name": "records",
      "outputs": [
        {
          "name": "",
          "type": "address"
        }
      ],
      "payable": false,
      "stateMutability": "view",
      "type": "function"
    },
    {
      "constant": true,
      "inputs": [],
      "name": "owner",
      "outputs": [
        {
          "name": "",
          "type": "address"
        }
      ],
      "payable": false,
      "stateMutability": "view",
      "type": "function"
    },
    {
      "constant": true,
      "inputs": [
        {
          "name": "",
          "type": "bytes32"
        }
      ],
      "name": "timestamps",
      "outputs": [
        {
          "name": "",
          "type": "uint256"
        }
      ],
      "payable": false,
      "stateMutability": "view",
      "type": "function"
    },
    {
      "constant": false,
      "inputs": [
        {
          "name": "newOwner",
          "type": "address"
        }
      ],
      "name": "transferOwnership",
      "outputs": [],
      "payable": false,
      "stateMutability": "nonpayable",
      "type": "function"
    },
    {
      "anonymous": false,
      "inputs": [
        {
          "indexed": true,
          "name": "record",
          "type": "bytes32"
        },
        {
          "indexed": true,
          "name": "certifier",
          "type": "address"
        },
        {
          "indexed": false,
          "name": "timestamp",
          "type": "uint256"
        }
      ],
      "name": "LogNotarized",
      "type": "event"
    },
    {
      "constant": false,
      "inputs": [
        {
          "name": "_record",
          "type": "bytes"
        }
      ],
      "name": "certify",
      "outputs": [],
      "payable": false,
      "stateMutability": "nonpayable",
      "type": "function"
    },
    {
      "constant": true,
      "inputs": [
        {
          "name": "_record",
          "type": "bytes32"
        }
      ],
      "name": "exists",
      "outputs": [
        {
          "name": "",
          "type": "bool"
        }
      ],
      "payable": false,
      "stateMutability": "view",
      "type": "function"
    },
    {
      "constant": true,
      "inputs": [
        {
          "name": "_record",
          "type": "bytes32"
        }
      ],
      "name": "getCertifier",
      "outputs": [
        {
          "name": "",
          "type": "address"
        }
      ],
      "payable": false,
      "stateMutability": "view",
      "type": "function"
    },
    {
      "constant": true,
      "inputs": [
        {
          "name": "_record",
          "type": "bytes32"
        }
      ],
      "name": "getTimestamp",
      "outputs": [
        {
          "name": "",
          "type": "uint256"
        }
      ],
      "payable": false,
      "stateMutability": "view",
      "type": "function"
    },
    {
      "constant": true,
      "inputs": [
        {
          "name": "_record",
          "type": "bytes32"
        }
      ],
      "name": "didCertify",
      "outputs": [
        {
          "name": "",
          "type": "bool"
        }
      ],
      "payable": false,
      "stateMutability": "view",
      "type": "function"
    },
    {
      "constant": true,
      "inputs": [
        {
          "name": "_record",
          "type": "bytes32"
        },
        {
          "name": "_notarizer",
          "type": "address"
        }
      ],
      "name": "isCertifier",
      "outputs": [
        {
          "name": "",
          "type": "bool"
        }
      ],
      "payable": false,
      "stateMutability": "view",
      "type": "function"
    },
    {
      "constant": true,
      "inputs": [
        {
          "name": "_hash",
          "type": "bytes32"
        },
        {
          "name": "_sig",
          "type": "bytes"
        }
      ],
      "name": "ecrecovery",
      "outputs": [
        {
          "name": "",
          "type": "address"
        }
      ],
      "payable": false,
      "stateMutability": "pure",
      "type": "function"
    },
    {
      "constant": true,
      "inputs": [
        {
          "name": "_hash",
          "type": "bytes32"
        },
        {
          "name": "_sig",
          "type": "bytes"
        },
        {
          "name": "_signer",
          "type": "address"
        }
      ],
      "name": "ecverify",
      "outputs": [
        {
          "name": "",
          "type": "bool"
        }
      ],
      "payable": false,
      "stateMutability": "pure",
      "type": "function"
    }
  ],
  "bytecode": "0x6080604052336000806101000a81548173ffffffffffffffffffffffffffffffffffffffff021916908373ffffffffffffffffffffffffffffffffffffffff160217905550610dd5806100536000396000f3fe6080604052600436106100ba576000357c0100000000000000000000000000000000000000000000000000000000900463ffffffff16806301e64725146100bf57806319af86731461013a57806338a699a4146101ad57806339cdde3214610200578063507ac5431461030a5780635c94e597146103d257806377d32e94146104255780638da5cb5b14610537578063acb376ae1461058e578063b587295814610609578063d45c443514610658578063f2fde38b146106a7575b600080fd5b3480156100cb57600080fd5b506100f8600480360360208110156100e257600080fd5b81019080803590602001909291905050506106f8565b604051808273ffffffffffffffffffffffffffffffffffffffff1673ffffffffffffffffffffffffffffffffffffffff16815260200191505060405180910390f35b34801561014657600080fd5b506101936004803603604081101561015d57600080fd5b8101908080359060200190929190803573ffffffffffffffffffffffffffffffffffffffff16906020019092919050505061072b565b604051808215151515815260200191505060405180910390f35b3480156101b957600080fd5b506101e6600480360360208110156101d057600080fd5b81019080803590602001909291905050506107bd565b604051808215151515815260200191505060405180910390f35b34801561020c57600080fd5b506102f06004803603606081101561022357600080fd5b81019080803590602001909291908035906020019064010000000081111561024a57600080fd5b82018360208201111561025c57600080fd5b8035906020019184600183028401116401000000008311171561027e57600080fd5b91908080601f016020809104026020016040519081016040528093929190818152602001838380828437600081840152601f19601f820116905080830192505050505050509192919290803573ffffffffffffffffffffffffffffffffffffffff169060200190929190505050610855565b604051808215151515815260200191505060405180910390f35b34801561031657600080fd5b506103d06004803603602081101561032d57600080fd5b810190808035906020019064010000000081111561034a57600080fd5b82018360208201111561035c57600080fd5b8035906020019184600183028401116401000000008311171561037e57600080fd5b91908080601f016020809104026020016040519081016040528093929190818152602001838380828437600081840152601f19601f820116905080830192505050505050509192919290505050610898565b005b3480156103de57600080fd5b5061040b600480360360208110156103f557600080fd5b8101908080359060200190929190505050610a7c565b604051808215151515815260200191505060405180910390f35b34801561043157600080fd5b506104f56004803603604081101561044857600080fd5b81019080803590602001909291908035906020019064010000000081111561046f57600080fd5b82018360208201111561048157600080fd5b803590602001918460018302840111640100000000831117156104a357600080fd5b91908080601f016020809104026020016040519081016040528093929190818152602001838380828437600081840152601f19601f820116905080830192505050505050509192919290505050610b0d565b604051808273ffffffffffffffffffffffffffffffffffffffff1673ffffffffffffffffffffffffffffffffffffffff16815260200191505060405180910390f35b34801561054357600080fd5b5061054c610bf1565b604051808273ffffffffffffffffffffffffffffffffffffffff1673ffffffffffffffffffffffffffffffffffffffff16815260200191505060405180910390f35b34801561059a57600080fd5b506105c7600480360360208110156105b157600080fd5b8101908080359060200190929190505050610c16565b604051808273ffffffffffffffffffffffffffffffffffffffff1673ffffffffffffffffffffffffffffffffffffffff16815260200191505060405180910390f35b34801561061557600080fd5b506106426004803603602081101561062c57600080fd5b8101908080359060200190929190505050610c79565b6040518082815260200191505060405180910390f35b34801561066457600080fd5b506106916004803603602081101561067b57600080fd5b8101908080359060200190929190505050610c91565b6040518082815260200191505060405180910390f35b3480156106b357600080fd5b506106f6600480360360208110156106ca57600080fd5b81019080803573ffffffffffffffffffffffffffffffffffffffff169060200190929190505050610cd4565b005b60016020528060005260406000206000915054906101000a900473ffffffffffffffffffffffffffffffffffffffff1681565b60008173ffffffffffffffffffffffffffffffffffffffff1660016000856040516020018082815260200191505060405160208183030381529060405280519060200120815260200190815260200160002060009054906101000a900473ffffffffffffffffffffffffffffffffffffffff1673ffffffffffffffffffffffffffffffffffffffff1614905092915050565b6000808260405160200180828152602001915050604051602081830303815290604052805190602001209050600073ffffffffffffffffffffffffffffffffffffffff166001600083815260200190815260200160002060009054906101000a900473ffffffffffffffffffffffffffffffffffffffff1673ffffffffffffffffffffffffffffffffffffffff161415915050919050565b60006108618484610b0d565b73ffffffffffffffffffffffffffffffffffffffff168273ffffffffffffffffffffffffffffffffffffffff161490509392505050565b6000816040516020018082805190602001908083835b6020831015156108d357805182526020820191506020810190506020830392506108ae565b6001836020036101000a0380198251168184511680821785525050505050509050019150506040516020818303038152906040528051906020012090506040518060000190506040518091039020811415151561092f57600080fd5b600073ffffffffffffffffffffffffffffffffffffffff166001600083815260200190815260200160002060009054906101000a900473ffffffffffffffffffffffffffffffffffffffff1673ffffffffffffffffffffffffffffffffffffffff1614151561099d57600080fd5b600060026000838152602001908152602001600020541415156109bf57600080fd5b336001600083815260200190815260200160002060006101000a81548173ffffffffffffffffffffffffffffffffffffffff021916908373ffffffffffffffffffffffffffffffffffffffff1602179055504260026000838152602001908152602001600020819055503373ffffffffffffffffffffffffffffffffffffffff16817fca111dc24ca4691c1b13d5149b57bf1c0377ba900325f349628197d8dd3fef45426040518082815260200191505060405180910390a35050565b60003373ffffffffffffffffffffffffffffffffffffffff1660016000846040516020018082815260200191505060405160208183030381529060405280519060200120815260200190815260200160002060009054906101000a900473ffffffffffffffffffffffffffffffffffffffff1673ffffffffffffffffffffffffffffffffffffffff16149050919050565b60008060008060418551141515610b2a5760009350505050610beb565b602085015192506040850151915060ff6041860151169050601b8160ff161015610b5557601b810190505b601b8160ff1614158015610b6d5750601c8160ff1614155b15610b7e5760009350505050610beb565b60018682858560405160008152602001604052604051808581526020018460ff1660ff1681526020018381526020018281526020019450505050506020604051602081039080840390855afa158015610bdb573d6000803e3d6000fd5b5050506020604051035193505050505b92915050565b6000809054906101000a900473ffffffffffffffffffffffffffffffffffffffff1681565b600060016000836040516020018082815260200191505060405160208183030381529060405280519060200120815260200190815260200160002060009054906101000a900473ffffffffffffffffffffffffffffffffffffffff169050919050565b60026020528060005260406000206000915090505481565b6000600260008360405160200180828152602001915050604051602081830303815290604052805190602001208152602001908152602001600020549050919050565b6000809054906101000a900473ffffffffffffffffffffffffffffffffffffffff1673ffffffffffffffffffffffffffffffffffffffff163373ffffffffffffffffffffffffffffffffffffffff16141515610d2f57600080fd5b600073ffffffffffffffffffffffffffffffffffffffff168173ffffffffffffffffffffffffffffffffffffffff16141515610da657806000806101000a81548173ffffffffffffffffffffffffffffffffffffffff021916908373ffffffffffffffffffffffffffffffffffffffff1602179055505b5056fea165627a7a72305820444c03ce98977ed52613b223a6f0e1eab52cc7dec2e0a6ff16692a3367e3b67f0029",
  "source": "pragma solidity ^0.5.0;\n\nimport './Ownable.sol';\n\ncontract Certifyi is Ownable {\n  mapping (bytes32 => address) public records;\n  mapping (bytes32 => uint256) public timestamps;\n  \n  \n\n  event LogNotarized(bytes32 indexed record, address indexed certifier, uint256 timestamp);\n\n  function certify(bytes memory _record) public {\n    bytes32 hash = keccak256(abi.encodePacked(_record));\n    require(hash != keccak256(\"\"));\n    require(records[hash] == address(0));\n    require(timestamps[hash] == 0);\n    records[hash] = msg.sender;\n    timestamps[hash] = block.timestamp;\n\n    emit LogNotarized(hash, msg.sender, block.timestamp);\n  }\n\n  function exists(bytes32 _record) view public returns (bool) {\n    bytes32 hash = keccak256(abi.encodePacked(_record));\n    return records[hash] != address(0);\n  }\n\n  function getCertifier(bytes32 _record) view public returns (address) {\n    return records[keccak256(abi.encodePacked(_record))];\n  }\n\n  function getTimestamp(bytes32 _record) view public returns (uint256) {\n    return timestamps[keccak256(abi.encodePacked(_record))];\n  }\n\n  function didCertify(bytes32 _record) view public returns (bool) {\n    return records[keccak256(abi.encodePacked(_record))] == msg.sender;\n  }\n\n  function isCertifier(bytes32 _record, address _notarizer) view public returns (bool) {\n    return records[keccak256(abi.encodePacked(_record))] == _notarizer;\n  }\n\n  function ecrecovery(bytes32 _hash, bytes memory _sig)  pure public returns (address) {\n    bytes32 r;\n    bytes32 s;\n    uint8 v;\n\n    if (_sig.length != 65) {\n      return address(0);\n    }\n\n    assembly {\n      r := mload(add(_sig, 32))\n      s := mload(add(_sig, 64))\n      v := and(mload(add(_sig, 65)), 255)\n    }\n\n    // https://github.com/ethereum/go-ethereum/issues/2053\n    if (v < 27) {\n      v += 27;\n    }\n\n    if (v != 27 && v != 28) {\n      return address(0);\n    }\n\n    return ecrecover(_hash, v, r, s);\n  }\n\n  function ecverify(bytes32 _hash, bytes memory _sig, address _signer) pure public returns (bool) {\n    return _signer == ecrecovery(_hash, _sig);\n  }\n}",
  "sourcePath": "/home/manzik/Consensys Bootcamp/Final Project/PetShop/contracts/Certify.sol",
  "compiler": {
    "name": "solc",
    "version": "0.5.0+commit.1d4f565a.Emscripten.clang"
  },
  "schemaVersion": "3.0.9",
  "updatedAt": "2019-07-18T06:09:32.444Z",
  "devdoc": {
    "methods": {}
  },
  "userdoc": {
    "methods": {}
  }
}